:020000040800F2
:100000007815002035020008852900087D290008A0
:1000100081290008811400089D2E000800000000BE
:10002000000000000000000000000000B1290008EE
:10003000851400080000000087290008B329000883
:100040004F0200084F0200084F0200084F0200084C
:100050004F0200084F0200084F0200084F0200083C
:100060004F0200084F0200084F0200084F0200082C
:100070004F0200084F0200084F0200084F0200081C
:100080004F0200084F0200084F0200084F0200080C
:100090004F0200084F0200084F0200084F020008FC
:1000A0004F0200084F0200084F0200084F020008EC
:1000B000BD290008CD2900084F0200084F020008A2
:1000C0004F0200084F0200084F0200084F020008CC
:1000D0004F020008CD2D00084D2E00084F020008E9
:1000E0004F0200084F0200084F0200084F020008AC
:1000F0004F0200084F0200084F0200084F0200089C
:100100004F0200084F020008DD2900084F020008D6
:100110004F0200084F0200084F0200084F0200087B
:100120004F0200084F0200084F0200084F0200086B
:1001300000F002F800F06EF80AA090E8000C82448B
:100140008344AAF10107DA4501D100F063F8AFF268
:10015000090EBAE80F0013F0010F18BFFB1A43F0A5
:1001600001031847B03F0000D03F000010F8013BEA
:100170000A4413F0030408BF10F8014B1D1108BF17
:1001800010F8015B641E05D010F8016B641E01F8C5
:10019000016BF9D1002D15D010F8014B03F00C03C1
:1001A0000C2BA1EB04040ABF10F8013BA4EB831451
:1001B000A4EB032405F1010314F8016B5B1E01F8A5
:1001C000016BF9D5914238BF10F8013BD1D370478C
:1001D0000023002400250026103A28BF78C1FBD850
:1001E000520728BF30C148BF0B607047662903F033
:1001F000FE86642900F04C80002070471FB500F097
:1002000005FC04000020002103F0A8FBE0601FBDF6
:1002100010B510BD00F0FEFC1146FFF7EFFF03F034
:1002200071FA00F01CFD03B4FFF7F2FF03BC02F00B
:100230006EFE00000948804709480047FEE7FEE7D8
:10024000FEE7FEE7FEE7FEE7FEE7FEE7FEE7FEE786
:1002500004480549054A064B70470000BB290008C1
:1002600031010008780F0020781500207811002057
:1002700078110020704700000FB4044910B503AA9C
:10028000029800F0B1FB10BC5DF814FB140C0020C8
:100290002DE9F0410646002410687529314616A55F
:1002A00010D0AFF30080002802DA404213A507E027
:1002B00031688A0701D512A502E0490704D511A5C6
:1002C000012401E0AFF3008000210A2206F1240797
:1002D00009E0B0FBF2FCB0FBF2F302FB1C00303093
:1002E00078541846491C0028F3D123462A46304644
:1002F000BDE8F04100F0F7B8000000002D0000005C
:100300002B000000200000002DE9F05F8946044624
:100310004FF0000ADFF874B1FB44C0F820A020467B
:10032000E1688847002874D0252806D0D4E9012147
:100330009047206A401C2062F1E700265F46204675
:10034000E16888472028054607DB312D05D278195A
:1003500010F8200C08B10643F1E7B00701D526F0EC
:100360000406C4F81CA00027C4F818A02A2D09D040
:10037000284602F0C5FD38B304EB8708303DC8F8C5
:10038000185019E059F8041B204604EB87029161CC
:10039000E1688847012F054618D1E069002820DA76
:1003A00026F020061DE0D8F8180000EB800005EBD1
:1003B00040003038C8F818002046E16888470546F4
:1003C00002F09EFD0028EED1012F0AD02E2D08D17B
:1003D0002046E16888477F1C0546022F46F020062C
:1003E000C4DBA069002803DA404246F00106A061A0
:1003F000F00701D026F010066C2D0BD0682D09D027
:100400004C2D39D06A2D35D0742D35D07A2D33D07E
:1004100016E038E0E1682F4620468847B842054696
:1004200009D16C2F26D04FF48060E1680643204646
:100430008847054604E06C2F1AD04FF480700643BD
:100440000DB3A5F14100192802D8203546F4006605
:100450004A462946204626604E46FFF7C7FE80B131
:1004600001280BD0F61D26F0070000F1080956E719
:100470004020E4E78020D8E70020D6E706F1040911
:100480004DE7284652E7206ABDE8F09F0E3D000088
:100490004FF0000200B5134694469646203922BF1D
:1004A000A0E80C50A0E80C50B1F12001BFF4F7AF68
:1004B000090728BFA0E80C5048BF0CC05DF804EB4A
:1004C000890028BF40F8042B08BF704748BF20F8B8
:1004D000022B11F0804F18BF00F8012B70477047B6
:1004E0007047704770472DE9F0470D469946924690
:1004F000044600F124080168880604D5E06921F06B
:100500001001216000E00120A84201DD471B00E04E
:100510000027A1697A1902EB0900081AA061207866
:10052000C00602D42046AFF30080002608E0D4E9DC
:1005300001211AF806009047206A401C761C2062B0
:100540004E45F4DB2078C0060AD52046AFF3008084
:1005500006E0D4E9012130209047206A401C206247
:10056000381EA7F10107F4DC07E0D4E9012118F8EF
:1005700005009047206A401C2062281EA5F1010555
:10058000F3DC2046AFF300802078000602D502207D
:10059000BDE8F0870120FBE770472DE9FF4F0C46CF
:1005A0001E464FF0FF378BB0D2E90001DDF86080C6
:1005B0000A908A46C1F30A5505B93D46002108460E
:1005C0004FF00000BAF1000F00F4400005DA00EB34
:1005D00080004FF4400101EA50004FEA9059B9F110
:1005E000010F00DDB9460A9850EA4A000ED044F6E1
:1005F0001050A5F2FF3545432F14B8F1000F1ED05F
:100600007542291E1EDDC9F100021CE0B8F1010F80
:100610004FF0000001D0302103E0F24305E0215407
:10062000401CB042FBDB30460022002121540B99D4
:10063000C1F80880C1E900200FB0BDE8F08FBD1BF4
:100640006D1CDEE74A4600DA694206A800F068FA47
:1006500006AB93E8070003AB83E8070050460A990E
:1006600000F046FB8DE80700A0F500501F38009011
:100670000398002D0ADD42F21F014A460844002378
:1006800003A90390684600F0AFFD09E0A0F5005013
:100690004A461F38002303A90390684600F0B9FDBD
:1006A0008DE807000004000C03D04FF0FF30410834
:1006B00000E01046B8F1000F03D00022009215466A
:1006C0001EE0751E05D400F0A5F9303262556D1E8E
:1006D000F9D5B3460122084302D000227F1C04E072
:1006E0002078302801D100227F1E002A099784D06B
:1006F0001DE0112D07DA00F08DF9303262556D1CC6
:1007000050EA0102F5D1084302D00098C8B10EE0CA
:100710000021681E05E0235C625C63542254401E85
:10072000491C8142F7DBAB46A81B401E0990002004
:1007300004F80B000B98099AC0F80880C0E9002B58
:100740007AE711264FF0000857E72DE9F04F884669
:100750000446D21D22F0070191B0D1E90001CDE994
:100760000A0102F09DFB02460B98C00F01D02D201C
:1007700007E02068810701D52B2002E0202101EA53
:10078000C000032A099001D0072A05DB0346414631
:10079000204600F085F90BE12078800601D5E0695C
:1007A00000E00620B8F1650F814606D0B8F1660F6B
:1007B00018D0B8F1670F70D131E00020B9F1110FF6
:1007C000009001DB112301E009F101030AAA01A94C
:1007D0000CA8FFF7E2FEDDE90C70002609F1010527
:1007E000834647E001204B4600904FF000470AAA9D
:1007F00001A90CA8FFF7D1FEDDE90DB00C995D460B
:10080000002610B909F101000D18B9EB050003D459
:10081000C0F1FF3609F10105A5EB09002BE0B9F1A4
:10082000010F01DA4FF001090020B9F1110F00901A
:10083000484601DD112300E003460AAA01A90CA8DD
:10084000FFF7ABFEDDE90C704D46002683462078AD
:1008500000070AD4AB4500DA5D4601A8012D04DD8E
:10086000411911F8011C302907D04F4502DA17F160
:10087000040F04DA012082460FE06D1EEEE7002F20
:1008800002DCED1B3E4403E0781CA84200DD7D1C29
:10089000B81B00F1010A4FF000472078000703D48D
:1008A000AA4501DB4FF0FF3A0021B7F1004F0DF1EF
:1008B00043088DF8431024D002202B23002F01DAA7
:1008C0007F422D230A21021EA0F1010000DC5FB14E
:1008D00097FBF1FC97FBF1F201FB1C7C17460CF136
:1008E000300C08F801CDEEE7A8F101000370218873
:1008F000090501D5452100E06521A0F1010800F8B6
:10090000011C09980FA9A1EB0807FF1D00B10120E8
:10091000411901EBEA70A1693844081A401EA06130
:100920002078C00602D42046AFF30080099828B191
:10093000D4E901219047206A401C20622078C0063B
:1009400022D52046AFF300801EE0002E04DBB34525
:1009500002DD01A8805D00E03020D4E9012190474C
:10096000206A401C2062761CAAF101005FEA000A9E
:100970000AD100F04BF8C0680168405CD4E901215D
:100980009047206A401C2062281EA5F10105DCDC8E
:1009900007E0D4E9012118F8010B9047206A401CB8
:1009A0002062381EA7F10107F3DC2046AFF3008078
:1009B000032011B041E6000001694A1C0261087879
:1009C000704700B58FB0CDE901310021059105498F
:1009D0007944CDE9031011466846FFF795FC0FB046
:1009E00000BD0000E5FFFFFF074B70B50D467B44DF
:1009F000FFF7E7FF0446284600F004F910B14FF076
:100A0000FF3070BD204670BD63280000004870476D
:100A1000380F002030B5B0F10A024FEA900E71F1A4
:100A200000034EEA817EB0EB0E0061EB91014FEACC
:100A3000101E4EEA017E10EB0E0041EB11114FEA41
:100A4000102E4EEA016E10EB0E0041EB11214FEA21
:100A5000104E4EEA014E10EB0E0041EB11414018D2
:100A600041F100014FEAD00040EA41704FEAD10164
:100A700010EB80054FEA810444EA907444EB0104D2
:100A80006D1944EB0404521BA3414FF0000348BF0F
:100A90000A3200D530BD401C41F1000130BD0000DC
:100AA0002DE9F0411F46044603260168072A01F498
:100AB000006004DB08B116A505E016A503E008B147
:100AC00015A500E015A521F010002060A069C01E4A
:100AD000A0610FB1401EA0612046AFF300804FB16E
:100AE000D4E9012138469047206A401C2062C01C8E
:100AF000206206E0206AFAE7D4E9012115F8010B2B
:100B00009047761EF8D22046AFF30080BDE8F08112
:100B10004E414E006E616E00494E4600696E6600A1
:100B20002DE9F047814616468AB0354878440DC80D
:100B30008DE80D0032487844801C03AC0DC884E871
:100B40000D0041F69B300844372190FBF1F290FBF9
:100B5000F1F5A5F1800501FB12041B3C02D56442AE
:100B6000012000E00020DFF898A080460027FA442A
:100B7000AAF1BE0A0EE0E0070AD03246684607EB4B
:100B8000470101230AEB810100F043FB8DE80700D8
:100B900064107F1C002CEED1194F7F44AE3F19E04A
:100BA000E80715D007EB04100DF1180A90E80E00C5
:100BB0008AE80E00C068F04201D1981908903246C8
:100BC000012306A903A800F024FB03AB83E8070078
:100BD0006D10641C002DE3D14FF0010332466946CD
:100BE000B8F1000F03A802D000F0FEFA01E000F017
:100BF00010FBC9E90001C9F808200AB0BDE8F08778
:100C000088350000007B00F0800070470048704786
:100C1000180F00207546FFF7F9FFAE46050069463C
:100C2000534620F00700854618B020B5FFF710FBAB
:100C3000BDE820404FF000064FF000074FF00008DD
:100C40004FF0000B21F00701AC46ACE8C009ACE85E
:100C5000C009ACE8C009ACE8C0098D46704710B5C2
:100C60000446AFF300802046BDE81040FFF7DBBA32
:100C70004FF0013C50F8042B51F8043B9A4221D12B
:100C8000A2EB0C03934313EACC1317D150F8042BB7
:100C900051F8043B9A4215D1A2EB0C03934313EA9B
:100CA000CC130BD150F8042B51F8043B9A4209D1D4
:100CB000A2EB0C03934313EACC13DBD04FF00000FC
:100CC000704700BFD01A01BAB1FA81F101F01801E2
:100CD00022FA01F0CB40C1F12001DBB2C0B2C01A50
:100CE0002CFA01F3D11A914311EAC311E6D17047EE
:100CF0005FEA400C08BF91F0000F4FEA8C234FEAE7
:100D0000C12243EA51514FEA1C5018BF00F5F04090
:100D10004FEA300018BF41F000415FEA6C5C00F020
:100D20002980BCF1FF3F08BF40F080407047130CA2
:100D300006BF12044FF0100C4FF0000C130E04BF4E
:100D400012020CF1080C130F04BF12010CF1040C79
:100D5000930F04BF92000CF1020CD30F04BF52009A
:100D60000CF1010C11464FF00002A0F11F00A0EBA6
:100D70000C00704711F0004F08BF704731F0004180
:100D80003FF4D5AF0B0C06BF09044FF0100C4FF029
:100D9000000C0B0E04BF09020CF1080C0B0F04BF72
:100DA00009010CF1040C8B0F04BF89000CF1020C3B
:100DB000CB0F04BF49000CF1010CCCF12003A0EBD8
:100DC0000C0022FA03F302FA0CF241EA030100F1EB
:100DD0000100704720F07F4C80EA030023F07F473A
:100DE000ACEB070303F57C5300F0004003F1FF0375
:100DF0002DE980494FEA154B09B44FEA144325EA1F
:100E00000B4E24EA03480FF2042606EB1327490889
:100E10003E785FEA320203FB0667C7F5000707FB6F
:100E200006F64FEA54374FEAD64606F1020607FBAC
:100E3000066CCCF1005C4FEA1C472CEA074C07FB20
:100E400006F40CFB06F504EB15464FEA961634BF84
:100E500000204FF000404FEAD13706FB07FC4FEA75
:100E60001C4C0CFB0BF7D21B03FB0CF761EB0701CF
:100E70000CFB0EF7B0EB074072EB17420CFB08F7C8
:100E800034BFA2EB0742B2EB074261EB17414FEAD6
:100E90000C444FEA910706FB07FC4FEA1C4C0CFB85
:100EA0000BF7B0EBC74072EB573203FB0CF734BFC4
:100EB000A2EBC742B2EBC74261EB57310CFB0EF716
:100EC000B0EBC70072EB57720CFB08F734BFA2EB14
:100ED000C702B2EBC70261EB5771039F4FEA816112
:100EE00041EA921104EBCC044FEAD1374FEA826217
:100EF00006FB07FC42EA90124FEA80604FEA1C4C66
:100F00000CFB0BF7D21B03FB0CF761EB07010CFB8F
:100F10000EF7B0EB074072EB17420CFB08F734BF3B
:100F2000A2EB0742B2EB074261EB17414FEA8C5547
:100F30004FEA910704EB9C2406FB07FC4FEA1C4C8C
:100F40000CFB0BF7B0EBC74072EB573203FB0CF70F
:100F500034BFA2EBC742B2EBC74261EB57310CFB87
:100F60000EF7B0EBC70072EB57720CFB08F734BFFB
:100F7000A2EBC702B2EBC70261EB577115EB4C2530
:100F80004FEA816141EA92114FEA82624FEAD1371A
:100F900042EA901206FB07FC44F100044FEA80602D
:100FA0004FEA1C4C0CFB0BF7D21B03FB0CF761EB5D
:100FB00007010CFB0EF7B0EB074072EB17420CFB7E
:100FC00008F734BFA2EB0742B2EB074261EB1741CF
:100FD00015EB1C154FEA813141EA92414FEA82320A
:100FE00042EA90424FEA80304FEA0C7644F1000426
:100FF00048EA03434EEA0B484FF0000EB2EB080CF0
:1010000071EB030724BF624639464EEB0E0E4FF0DC
:10101000000B0018524149414BEB0B0BB2EB080C93
:1010200071EB03077BF1000B24BF624639464EEBA0
:101030000E0E4FF0000B0018524149414BEB0B0BC9
:10104000B2EB080C71EB03077BF1000B24BF624687
:1010500039464EEB0E0E51EA020718BF46F0010664
:1010600016EB0E7655F1000254F1000103D5BDE8F0
:101070008901BDE80088BDE88901BDE80048B619CE
:10108000524141EB0101A3F10103704780807F7E53
:101090007D7C7B7A797877767675747372717170EE
:1010A0006F6E6E6D6C6C6B6A6A69686867666665A0
:1010B0006464636362616160605F5F5E5E5D5D5C2E
:1010C0005C5B5B5A5A59595858575756565555559F
:1010D0005454535352525251515050504F4F4F4EFF
:1010E0004E4D4D4D4C4C4C4B4B4B4A4A4A4949494D
:1010F000484848474747474646464545454444448F
:10110000444343434342424242414141002B9C46B7
:1011100030D477002BD01CB54FEA370703B44FF01B
:1011200010004FF01001BAF1000F06D0BCF1000F13
:10113000DCBF40F0080040F008014FF000000FBC99
:10114000BDE810400BF1010BBBF1010F08BF5FEAD6
:10115000170722BF12F1010211F101014FF0004106
:1011600043F1000300F0004043EA00007047F9D368
:101170005708D0E746EA064613F1400F4FEA1646F5
:101180001FDD13F1200FDFBF16430A460021203375
:101190005B42BED0C3F1200746EA064602FA07F7D3
:1011A0004FEA164646EA0706C3F1200722FA03F281
:1011B00001FA07F721FA03F14FF0000342EA0702B0
:1011C000A7E746EA020646EA06464FEA164646EA18
:1011D0000106BCBF46EA0646360C4FF000034FF04E
:1011E00000024FF0000194E72DE9804C9A469346A7
:1011F00070B491E8380007C831EA400C48BF34EABF
:10120000430C03D5FFF7E6FDFFF780FFF0BCBDE818
:10121000008C2DE9804C9A46934670B491E83800D2
:1012200007C810F0804F08BF13F0804F03D100F0C3
:1012300005F8FFF76BFFF0BCBDE8008C20F07F479E
:1012400080EA030023F07F4C07EB0C03A3F57C53EB
:1012500000F00040A3F1FE0392F0000F00F0B38015
:1012600095F0000F00F077802DE901494FEA114019
:101270004FEA144621EA004800FB06FC24EA064730
:1012800008FB06F607FB08F800FB07F718EB064813
:101290004CEB164C4FEA124B18EB07484FEA154639
:1012A0004CEB174022EA0B4E0BFB06FC25EA0647E7
:1012B0000EFB06F607FB0EFE0BFB07F71EEB064EBA
:1012C0004CEB164C4FF000061EEB074E4CEB174B49
:1012D00018EB0B0840F1000018EB0E0B58EB000860
:1012E00040F100008F1A4FF000013CBFC943661B5C
:1012F00014BFB5EB040C00213CBFC943F61B4FEAF9
:1013000017444EEA8E0E27EA04454FEA1C4704FBB9
:1013100007622CEA074C05FB07F70CFB05F604FBFC
:101320000CFC16EB074642EB174216EB0C4642EB61
:101330001C421BEB060658EB0202414146EA9E06A0
:1013400001D5BDE80189B619524141EB0101A3F174
:101350000103BDE801894FEA14454FEA114724EA29
:10136000054621EA074C05FB07F406FB07F70CFBD3
:1013700006F105FB0CFC11EB074144EB17444FEA67
:10138000124711EB0C4144EB1C4422EA074C05FBCD
:1013900007F206FB07F70CFB06F605FB0CFC16EB49
:1013A000074642EB174216EB0C4642EB1C456A1807
:1013B00054F1000148BF7047B619524141EB010199
:1013C000A3F10103704795F0000F37D04FEA1142A7
:1013D0004FEA144721EA024624EA074C02FB07F1D0
:1013E00006FB07F70CFB06F402FB0CFC14EB0744AE
:1013F00041EB17414FEA154714EB0C4441EB1C41FC
:1014000025EA074C02FB07F506FB07F70CFB06F67F
:1014100002FB0CFC16EB074645EB174516EB0C469A
:1014200045EB1C42121951F1000148BF7047B61933
:10143000524141EB0101A3F1010370474FEA14450A
:101440004FEA114724EA054621EA074C05FB07F15C
:1014500006FB07F70CFB06F24FF0000605FB0CFC41
:1014600012EB074241EB174112EB0C4251EB1C41CE
:1014700048BF7047921841EB0101A3F10103704787
:1014800000BFFEE7704700002DE9F8470246002341
:101490009C467BE14FF0010808FA03F4D1F8008084
:1014A00008EA0400A0427DD1DFF8F4A2D1F804805C
:1014B000A8EB0A09D0453AD014DCB8F1030F50D09C
:1014C00009DCB8F1000F31D0B8F1010F1CD0B8F130
:1014D000020F49D120E0B8F1110F18D0B8F1120F66
:1014E00042D11EE0B9F5881F25D006DCB9F5803F52
:1014F00020D0B9F5801F37D11AE0B9F5001F18D0F8
:10150000B9F5041F30D117E0D1F80CC02DE0D1F8A7
:101510000C8008F1040C28E0D1F80C8008F1080CCC
:1015200023E0D1F80C8008F10C0C1EE000BF00BFD6
:1015300000BF00BF00BF00BFD1F80880B8F1000FA6
:1015400002D14FF0040C0BE0D1F80880B8F1010F84
:1015500003D14FF0080C146102E04FF0080C546105
:1015600003E04FF0000C00E000BF00BFFF2801D8EF
:10157000904601E002F104084646FF2802D84FEAEF
:10158000830803E0A3F108084FEA88084746D6F825
:1015900000804FF00F0909FA07F928EA09080CFA48
:1015A00007F900E07AE048EA0908C6F80080D1F8B7
:1015B000048008F08058B8F1805F6FD100BFDFF879
:1015C000E481D8F8188048F00108DFF8D891C9F80C
:1015D0001880C846D8F8188008F00108CDF80080B7
:1015E00000BF00BF4FEAB9384FEA930958F82950B5
:1015F0004FEA83784FEA18794FF00F0808FA09F894
:1016000025EA0805DFF8A081424502D14FF0000825
:1016100024E0DFF89881424502D14FF001081DE037
:10162000DFF88C81424502D14FF0020816E0DFF866
:101630008481424502D14FF003080FE0DFF8788142
:10164000424502D14FF0040808E0DFF870814245BE
:1016500002D14FF0050801E04FF006084FEA837908
:101660004FEA197908FA09F848EA0505DFF85081C8
:101670004FEA930948F82950D1F8048008F48038DB
:10168000B8F5803F0BD1DFF83C81D8F8008048EAFC
:101690000008DFF83091C9F800800AE075E0DFF853
:1016A0002481D8F8008028EA0008DFF81891C9F8EA
:1016B0000080D1F8048008F40038B8F5003F0ED15E
:1016C000DFF8008108F10408D8F8008048EA000833
:1016D000DFF8F09009F10409C9F800800DE0DFF8A7
:1016E000E48008F10408D8F8008028EA0008DFF850
:1016F000D49009F10409C9F80080D1F8048008F4F5
:101700008018B8F5801F0ED1DFF8B88008F10808FE
:10171000D8F8008048EA0008DFF8A89009F1080925
:10172000C9F800800DE0DFF89C8008F10808D8F8BF
:10173000008028EA0008DFF88C9009F10809C9F850
:101740000080D1F8048008F40018B8F5001F0ED10D
:10175000DFF8708008F10C08D8F8008048EA00082B
:10176000DFF8609009F10C09C9F800800DE0DFF89E
:10177000548008F10C08D8F8008028EA0008DFF847
:10178000449009F10C09C9F800805B1CD1F8008075
:1017900028FA03F8B8F1000F7FF47CAEBDE8F887B3
:1017A000000011100010024000080140000C014030
:1017B000001001400014014000180140001C0140CD
:1017C0000800014000040140024693680B400BB141
:1017D000012000E0002070470AB1016101E00B0424
:1017E000036170470148006870470000200C00202A
:1017F00003480068034909780844014908607047B4
:10180000200C0020280C002010B50848006840F08B
:10181000100006490860032000F080F80F2000F057
:1018200007F800F02BF8002010BD00000020024057
:1018300070B504460E4800784FF47A71B1FBF0F0B1
:101840000C490968B1FBF0F5284600F0E3FB08B14C
:10185000012070BD102C07D200222146501E00F03E
:101860001EF80548046001E00120F2E70020F0E7DF
:10187000280C00200C0C0020240C0020704701468E
:101880000846002809DB00F01F0301229A404309A3
:101890009B0003F1E023C3F8002100BF70472DE94E
:1018A000F05F80460D461646002701F00DFB074607
:1018B00039462A46334601F00700C0F1070ABAF15B
:1018C000040F02D94FF0040A01E0C0F1070AD14623
:1018D00000F1040ABAF1070F02D24FF0000A01E04A
:1018E000A0F1030AD4464FF0010A0AFA09FAAAF154
:1018F000010A0AEA020A0AFA0CFA4FF0010B0BFA83
:101900000CFBABF1010B0BEA030B4AEA0B0421467B
:10191000404601F0E1FABDE8F09F000000BF00F092
:101920000702064B19684FF6FF031940044B0B439F
:1019300043EA0221014B196000BF70470CED00E043
:101940000000FA0570B504460D460CB9012070BDC3
:101950005A48006800F00700A8420ED257480068B5
:1019600020F007002843554908600846006800F049
:101970000700A84201D00120E9E7207800F002002A
:1019800002281DD1207800F00400042805D14C481D
:10199000406840F4E0604A494860207800F0080060
:1019A000082805D14648406840F4605044494860E2
:1019B0004348406820F0F000A1680843404948606F
:1019C000207800F0010078B36068012806D13C4817
:1019D000006800F4003090B90120B8E76068022880
:1019E00006D13748006800F0007040B90120AEE72A
:1019F0003348006800F0020008B90120A7E730482A
:101A0000406820F00300616808432D494860FFF7F3
:101A1000E9FE064609E0FFF7E5FE801B41F288314A
:101A2000884202D9032092E707E02548406800F089
:101A30000C006168B0EB810FEDD12048006800F028
:101A40000700A8420ED91D48006820F0070028436F
:101A50001A4908600846006800F00700A84201D053
:101A6000012074E7207800F00400042807D114480E
:101A7000406820F4E060E16808431149486020783C
:101A800000F00800082808D10D48406820F4605094
:101A9000216940EAC1000A49486000F03FF808495E
:101AA0004968C1F30311074A515CC8400649086000
:101AB00006480068FFF7BCFE002048E7002002400F
:101AC00000100240F23F00080C0C0020240C002003
:101AD00001480068704700000C0C002000B5FFF7BB
:101AE000F7FF04494968C1F30221034A515CC84029
:101AF00000BD0000001002400240000800B5FFF7E2
:101B0000E7FF04494968C1F3C221034A515CC84058
:101B100000BD00000010024002400008F0B585B092
:101B20000FF26C0C9CE8E01001A8A0E8E0101CA5E6
:101B30002D68009500210022002300240020194D6B
:101B4000696801F00C05F5B1042D02D0082D19D1FA
:101B500001E0154819E001ADC1F38346AC5D01F425
:101B6000803555B10F4D6D68C5F340451DF8052012
:101B70000D4D6543B5FBF2F302E00C4D04FB05F39C
:101B8000184602E000BF084800BF00BF05B0F0BD26
:101B900002030405060708090A0B0C0D0E0F1010AE
:101BA000010200000010024000127A0000093D000E
:101BB000F8B504460CB90120F8BD207800F001000A
:101BC000002878D0F848406800F00C0004280CD0B9
:101BD000F548406800F00C00082811D1F248406830
:101BE00000F48030B0F5803F0AD1EF48006800F47F
:101BF000003000285FD0606800285CD10120DBE75E
:101C000000BF6068B0F5803F06D1E748006840F447
:101C10008030E549086028E0606858B9E24800680B
:101C200020F48030E04908600846006820F48020F5
:101C300008601AE06068B0F5A02F0BD1DA480068A0
:101C400040F48020D84908600846006840F480309D
:101C500008600AE0D448006820F48030D249086067
:101C60000846006820F48020086000BF606888B1E2
:101C7000FFF7B8FD054606E0FFF7B4FD401B6428FA
:101C800001D9032098E7C848006800F40030002814
:101C9000F2D010E0FFF7A6FD054606E0FFF7A2FD33
:101CA000401B642801D9032086E7BF48006800F480
:101CB00000300028F2D1207800F00200022857D12D
:101CC000B948406800F00C0050B1B748406800F0D7
:101CD0000C00082818D1B448406800F4803098B946
:101CE000B148006800F0020020B12069012801D04D
:101CF000012061E7AC48006820F0F800616940EA23
:101D0000C100A949086033E02069E8B10120A74972
:101D10000860FFF767FD054606E0FFF763FD401B1F
:101D2000022801D9032047E79F48006800F002001D
:101D30000028F2D09C48006820F0F800616940EA71
:101D4000C1009949086013E0002098490860FFF736
:101D500049FD054606E0FFF745FD401B022801D975
:101D6000032029E79048006800F002000028F2D123
:101D7000207800F0080008282DD1A069B8B1012012
:101D80008B490860FFF72EFD054606E0FFF72AFDA8
:101D9000401B022801D903200EE78348406A00F067
:101DA00002000028F2D0012000F0EEFD13E0002038
:101DB0007F490860FFF716FD054606E0FFF712FDB4
:101DC000401B022801D90320F6E67748406A00F05C
:101DD00002000028F2D1207800F00400042873D11A
:101DE00000277148C06900F0805070B900BF6E488C
:101DF000C06940F080506C49C8610846C06900F075
:101E00008050009000BF00BF01276A48006800F4BE
:101E10008070B0B96748006840F480706549086018
:101E2000FFF7E0FC054606E0FFF7DCFC401B6428FA
:101E300001D90320C0E65F48006800F480700028E4
:101E4000F2D000BFE068012806D15748006A40F090
:101E500001005549086227E0E06858B95248006A15
:101E600020F00100504908620846006A20F0040092
:101E7000086219E0E06805280BD14B48006A40F081
:101E80000400494908620846006A40F001000862FF
:101E90000AE04548006A20F001004349086208460C
:101EA000006A20F00400086200BFE068A0B1FFF7FC
:101EB00099FC054609E0FFF795FC401B41F288318B
:101EC000884202D9032077E622E03748006A00F012
:101ED00002000028EFD012E0FFF784FC054608E07E
:101EE000FFF780FC401B41F28831884201D9032072
:101EF00062E62D48006A00F002000028F0D1012FB0
:101F000005D12948C06920F080502749C86100BF29
:101F1000E069C8B32448406800F00C00082860D08D
:101F2000E069022848D1002020490866FFF75AFCE2
:101F3000054606E0FFF756FC401B022801D90320A6
:101F40003AE61948006800F000700028F2D1206AD3
:101F5000B0F5803F07D11448406820F40030A168F4
:101F6000084311494860D4E9080108430E4949680B
:101F700021F4741108430C49486001200B4908669C
:101F8000FFF730FC054607E03DE0FFF72BFC401B68
:101F9000022801D903200FE60348006800F0007012
:101FA0000028F2D02FE00000001002400000424262
:101FB0008004424200700040002014490866FFF788
:101FC00011FC054606E0FFF70DFC401B022801D975
:101FD0000320F1E50E48006800F000700028F2D1FF
:101FE00011E0E069012800D1E6E50948466806F4F9
:101FF0008031206A814204D106F47011606A814206
:1020000001D00120D8E50020D6E5000000004242C2
:102010000010024070B504462546681EB0F1807F6E
:1020200001D301200FE0681E4FF0E02148610F212D
:102030004FF0FF3000F050FF00204FF0E0218861AA
:1020400007200861002070BD7047704710B5044636
:102050000CB9012010BD94F83D0028B9002084F887
:102060003C00204600F025F8022084F83D00211DA8
:10207000206800F0BBFC012084F8460000BF84F813
:102080003E0001213F2001554020015541200155CE
:1020900000BF00BF012084F84200432001554420C6
:1020A00001554520015500BF012084F83D00002066
:1020B000D0E77047014691F83D00012801D001208A
:1020C0007047022081F83D000868C06840F00100B8
:1020D0000B68D860164B0868984213D0154B0868F7
:1020E00098420FD00868B0F1804F0BD0124B0868AF
:1020F000984207D0114B0868984203D0104B0868EB
:1021000098420CD10868806800F00702062A0CD0BB
:102110000868006840F001000B68186005E0086876
:10212000006840F001000B6818600020C8E700005C
:10213000002C014000340140000400400008004031
:10214000000C004001460868C06820F001000A68E1
:10215000D06000BF0868006A41F21112104050B907
:102160000868006A9210104028B90868006820F0DA
:1021700001000A68106000BF012081F83D000020C6
:102180007047704710B5044620680069C0F34000EE
:10219000D8B12068C068C0F34000B0B16FF0020051
:1021A00021680861012020772068806900F0030021
:1021B00018B12046FFF7E5FF05E0204600F0ADF836
:1021C000204600F05DF90020207720680069C0F308
:1021D0008000D8B12068C068C0F38000B0B16FF053
:1021E000040021680861022020772068806900F4DB
:1021F000407018B12046FFF7C4FF05E0204600F00C
:102200008CF8204600F03CF9002020772068006917
:10221000C0F3C000D8B12068C068C0F3C000B0B13E
:102220006FF0080021680861042020772068C069E9
:1022300000F0030018B12046FFF7A3FF05E0204699
:1022400000F06BF8204600F01BF900202077206892
:102250000069C0F30010D8B12068C068C0F3001056
:10226000B0B16FF010002168086108202077206865
:10227000C06900F4407018B12046FFF782FF05E006
:10228000204600F04AF8204600F0FAF800202077B7
:102290002068006900F0010058B12068C06800F0B3
:1022A000010030B16FF0010021680861204600F0A4
:1022B00063F920680069C0F3C01058B12068C06895
:1022C000C0F3C01030B16FF0800021680861204673
:1022D000FFF7BAFE20680069C0F3801058B120688B
:1022E000C068C0F3801030B16FF040002168086111
:1022F000204600F0A5F920680069C0F3401058B1ED
:102300002068C068C0F3401030B16FF02000216831
:1023100008612046FFF799FE10BD704770B504466E
:102320000D46164600BF94F83C00012801D102205A
:1023300070BD012084F83C0000BF36B1042E1BD0D4
:10234000082E31D00C2E5ED145E02946206800F0E1
:10235000ADFB2068806940F0080021688861206832
:10236000806920F0040021688861206880692969FB
:1023700008432168886147E02946206800F0CEFBC9
:102380002068806940F40060216888612068806965
:1023900020F480602168886120688069296940EAAA
:1023A0000120216888612FE02946206800F0F4FBB5
:1023B0002068C06940F008002168C8612068C069D1
:1023C00020F004002168C8612068C06929690843B9
:1023D0002168C86118E02946206800F019FC2068CF
:1023E000C06940F400602168C8612068C06920F4B9
:1023F00080602168C8612068C069296940EA0120BD
:102400002168C86100E000BF00BF00BF002084F861
:102410003C0000BF00BF8BE710B504460CB901209B
:1024200010BD94F83D0028B9002084F83C002046F7
:1024300000F025F8022084F83D00211D206800F0FE
:10244000D5FA012084F8460000BF84F83E0001213F
:102450003F200155402001554120015500BF00BFDC
:10246000012084F8420043200155442001554520B5
:10247000015500BF012084F83D000020D0E77047DF
:102480007047000070B504460D4615B994F83E003B
:102490000BE0042D02D13F20005D06E0082D02D1A3
:1024A0004020005D01E04120005D012801D00120B5
:1024B00070BD1DB9022084F83E000EE0042D03D14A
:1024C00002213F20015508E0082D03D102214020C0
:1024D000015502E0022141200155012229462068D0
:1024E00000F0D2FA1F492068884203D01E492068B4
:1024F000884201D1012000E0002028B12068406C12
:1025000040F400402168486416492068884213D08E
:102510001549206888420FD02068B0F1804F0BD059
:1025200012492068884207D011492068884203D0A8
:102530001049206888420CD12068806800F00706A6
:10254000062E0CD02068006840F001002168086069
:1025500005E02068006840F0010021680860002064
:10256000A6E70000002C01400034014000040040B8
:1025700000080040000C004010B504462068B0F18F
:10258000804F4CD172B629482949097810F82100AA
:1025900008B1012000E00020024604212548FFF791
:1025A0001BF922482249097800EB8100407808B1E4
:1025B000012000E00020024608211E48FFF70CF928
:1025C0001A481B49097800EB8100807808B1012086
:1025D00000E00020024610211648FFF7FDF81348DE
:1025E0001349097800EB8100C07808B1012000E0B0
:1025F0000020024620210F48FFF7EEF80C49097829
:102600000D4A92F900201144081DC11700EB917189
:102610008910A0EB8101064A117062B605E00749F6
:102620002068884201D101F02DF910BD0A40000850
:102630002F0C0020001401402E0C0020000C004044
:10264000704710B504460CB9012010BDA06900B157
:1026500000E000BF94F8390028B9002084F8380061
:10266000204600F027F8242084F839002068C0684C
:1026700020F400502168C860204600F0F3FA20687A
:10268000006920F49040216808612068406920F0CA
:102690002A00216848612068C06840F40050216821
:1026A000C8600020E063202084F8390084F83A00F4
:1026B0000020CAE710B586B00446744920688842F5
:1026C00057D100BF00BF7248806940F004007049D4
:1026D00088610846806900F00400019000BF00BFD7
:1026E00000BF00BF00BF0846806940F00400886159
:1026F0000846806900F00400019000BF00BF00BFE1
:1027000000BF00BF0846806940F4804088610846E9
:10271000806900F48040019000BF00BF00BF4815F1
:10272000029002200390012004900320059002A94A
:102730005848FEF7A9FE4FF48060029000200390F5
:1027400002A95448FEF7A0FE2520FFF798F80322BF
:1027500011462520FFF7A3F82068C06840F020004C
:102760002168C8602068C06840F010002168C86017
:1027700089E04949206888423DD100BF44488069CA
:1027800040F00400424988610846806900F0040076
:10279000019000BF00BF00BF0846C06940F4003090
:1027A000C8610846C06900F40030019000BF00BF56
:1027B0000420029002200390012004900320059041
:1027C00002A93448FEF760FE082002900020039022
:1027D00002A93048FEF758FE2620FFF750F80322E2
:1027E00001212620FFF75BF82068C06840F0200038
:1027F0002168C86047E029492068884243D100BF6A
:102800002348806940F008002149886108468069B2
:1028100000F00800019000BF00BF00BF0846C0697B
:1028200040F48020C8610846C06900F4802001900F
:1028300000BF00BF08150290022003900120049001
:102840000320059002A91648FEF71EFE4FF4006013
:1028500002900020039002A91148FEF715FE2720E0
:10286000FFF70DF8032202212720FFF718F8206850
:10287000C06840F020002168C8602068C06840F04F
:1028800010002168C86006B010BD0000003801408B
:102890000010024000080140004400400048004091
:1028A000000C01402DE9F84F04460E4617469946A4
:1028B0004FF0000A94F83A0020285DD106B117B90C
:1028C0000120BDE8F88F00BF94F83800012801D13D
:1028D0000220F6E7012084F8380000BF0020E06302
:1028E000222084F83A00FEF77DFF8246A785E7851F
:1028F000A068B0F5805F04D1206910B90025B0460A
:1029000002E035464FF0000800BF002084F8380090
:1029100000BF29E05346002220212046CDF8009038
:1029200000F01EFA08B10320CBE745B920684068E3
:10293000C0F30800A8F8000008F1020811E0A06840
:10294000B0F5805F03D0A06828B9206918B9206865
:102950004068287004E02068406800F07F0028701C
:102960006D1CE08D401EE085E08D0028D2D1202036
:1029700084F83A000020A4E70220A2E700BFFEE7A7
:1029800000BFFEE77047704708B508490968C908E5
:102990004FF47A72B1FBF2F14143009100BF00BFE6
:1029A00000994A1E00920029F9D108BD0C0C0020A4
:1029B000704710B5FEF71CFF10BD704710B50248F8
:1029C000FFF7E0FB10BD0000880E002010B50248A4
:1029D000FFF7D8FB10BD0000400E002010B50248E4
:1029E000FFF7D0FB10BD0000D00E002010B502682C
:1029F000204B98420ED0204B98420BD0B0F1804F24
:102A000008D01E4B984205D01D4B984202D01D4B5A
:102A1000984203D122F070024B681A43154B98423A
:102A20000ED0154B98420BD0B0F1804F08D0134B0D
:102A3000984205D0124B984202D0124B984203D1D3
:102A400022F44072CB681A4322F080034C6943EAB7
:102A5000040202608B68C3620B688362054B984274
:102A600002D0054B984201D10B69036301234361F6
:102A700010BD0000002C0140003401400004004063
:102A800000080040000C004030B501F01F05012493
:102A900004FA05F3046A9C430462046A01F01F050A
:102AA00002FA05F52C43046230BD000030B5056A1A
:102AB00025F001050562026A4368846924F0700408
:102AC00024F003040D682C4322F002028D682A438F
:102AD000104DA84200D103E00F4DA84206D100BF1F
:102AE00022F00802CD682A4322F00402094DA842D0
:102AF00002D0094DA84207D123F4807323F4007358
:102B00004D692B438D692B43436084614D68456358
:102B1000026230BD002C01400034014030B5056A2E
:102B200025F010050562026A4368846924F4E044D4
:102B300024F440740D6844EA052422F020028D68D4
:102B400042EA0512124DA84200D103E0114DA842FD
:102B500007D100BF22F08002CD6842EA051222F0C0
:102B600040020B4DA84202D00A4DA84209D123F4DD
:102B7000806323F400634D6943EA85038D6943EA6A
:102B80008503436084614D688563026230BD000047
:102B9000002C01400034014030B5056A25F48075F1
:102BA0000562026A4368C46924F0700424F00304D7
:102BB0000D682C4322F400728D6842EA0522124D02
:102BC000A84200D103E0114DA84207D100BF22F472
:102BD0000062CD6842EA052222F480620A4DA842D2
:102BE00002D00A4DA84209D123F4805323F40053A4
:102BF0004D6943EA05138D6943EA05134360C461D7
:102C00004D68C563026230BD002C014000340140B4
:102C100030B5056A25F480550562036A4468C269C7
:102C200022F4E04222F440720D6842EA052223F4C5
:102C300000538D6843EA0533084DA84202D0084D81
:102C4000A84204D124F480444D6944EA85144460C8
:102C5000C2614D680564036230BD0000002C014074
:102C60000034014070B504462168096921F44051DF
:102C7000E2681143226811612269A1681143626907
:102C800041EA02052168C96841F20C629143294377
:102C90002268D1602168496921F44071A269114319
:102CA000226851612D4A2168914202D1FEF726FF28
:102CB00001E0FEF713FF00EBC00101EB00116268B9
:102CC0009200B1FBF2F100EBC00202EB001263686C
:102CD0009B00B2FBF3F26423B2FBF3F202EBC203FC
:102CE00003EB0212A1EB8201322202EB01116422FA
:102CF000B1FBF2F101F0F00100EBC00202EB0012B7
:102D000063689B00B2FBF3F26423B2FBF3F201EBC6
:102D1000021200EBC00101EB001163689B00B1FBE4
:102D2000F3F100EBC00303EB00136668B600B3FBDE
:102D3000F6F36426B3FBF6F303EBC30606EB0313CB
:102D4000A1EB8301322303EB01116423B1FBF3F107
:102D500001F00F0111442268916070BD00380140FC
:102D60002DE9F04104460D4617469846069E21E09F
:102D7000701CF8B12EB1FEF735FDA0EB0800B04293
:102D800018D92068C06820F4D0702168C860206815
:102D9000406920F0010021684861202084F8390052
:102DA00084F83A0000BF002084F8380000BF0320F8
:102DB000BDE8F081206800682840A84201D10120C8
:102DC00000E00020B842D3D00020F1E71CB500207D
:102DD00001901A4800680068C0F34010B8B1184864
:102DE0000088802802D30020154908804FF47A73A8
:102DF000012201A91148FFF755FD9DF80410104864
:102E000002880088401C0E4B18800E4881540B48E5
:102E100000680068C0F3001078B101200A4908601A
:102E200000BF00200090054800680068009003483B
:102E300000684068009000BF00BF1CBD000D00206E
:102E4000180C0020340C00201C0C002008B50020B9
:102E500000900F4800680068C0F34010B8B10D48FA
:102E60000088802802D300200A4908804FF47A7332
:102E7000012269460648FFF715FD9DF80010054838
:102E800002880088401C034B18800348815408BD09
:102E9000000E00202A0C0020400D002000BFFEE79D
:102EA000490050EAC12018BF04204A0D18BF40F065
:102EB000010040F2FF72B2EB515F08BF40F0020028
:102EC000012808BF0520704702480068C0F30220AF
:102ED000704700000CED00E010B5002804DB0A0785
:102EE000130E054A135406E00A07140E034A00F0B5
:102EF0000F031B1FD45410BD00E400E018ED00E0E8
:102F000030380A2801D2012070470020704700BFE6
:102F1000704700002DE9F04781460C4615462046D3
:102F200000F036FE07460022144B00F0FBFD08D3EC
:102F3000204600F02DFE07460022134600F062FDF9
:102F400002D20020BDE8F0872146484600F0DAFFB3
:102F5000824600F01DFE21F00041074600F014FDFE
:102F600006462146484600F0CDFE02D24FF0FF3023
:102F700000E0012028703046E4E700000000104027
:102F800000B58DB0002009900A900B900C901C2188
:102F900002A8FDF77DFA00BF2E48806940F02000AE
:102FA0002C4988610846806900F02000019000BF2C
:102FB00000BF00BF0846806940F0040088610846F1
:102FC000806900F00400019000BF00BF00BF084608
:102FD000C06940F00200C8610846C06900F0020004
:102FE000019000BF00BFC020099001200A9000207E
:102FF0000B9002200C9009A91748FEF745FA4020D3
:10300000099002200A9003200C9009A91348FEF7AA
:103010003BFA1348134908604720486000211148D3
:10302000816040F2E731C16000210161FFF7F4F9EE
:10303000602002900020039004900690002202A9D4
:103040000848FFF76BF900210648FFF71BFA0DB09F
:1030500000BD0000001002400014014000080140C3
:1030600000040040400E002010B5044654B901226F
:1030700040210A48FEF7B0FB002280210748FEF7F6
:10308000ABFB09E0002240210448FEF7A5FB01222A
:1030900080210248FEF7A0FB10BD00000014014093
:1030A0000149096848637047400E002010B50021AF
:1030B0000148FFF7E7F910BD400E00200149086004
:1030C00070470000100C002010B504464FF47A71D0
:1030D00004FB01F000F002F810BD000070B50346DB
:1030E00000224FF0E02675690D4E366803FB06F4AA
:1030F0004FF0E026B16910E04FF0E026B069884259
:103100000BD0884202D20E1A324402E02E1A0E442C
:1031100032440146A24200D300E0EDE700BF70BD9B
:10312000100C002000B585B00020019002900390A3
:10313000049000BF2448806940F020002249886143
:103140000846806900F02000009000BF00BF00BF6B
:103150000846C06940F00100C8610846C06900F037
:103160000100009000BF00BF3C20019001200290B0
:10317000002003900220049001A91448FEF784F96E
:103180004FF08040124908604720486000211048F5
:10319000816040F2E731C160002101618161FEF789
:1031A00055FF0B480068C06840F0010008490968F5
:1031B000C860022211461C20FEF771FB1C20FEF79E
:1031C0005EFB05B000BD000000100240001401408D
:1031D000880E002072B6002803DD0121044A117018
:1031E00004E0002802DAFF21014A117062B670473C
:1031F0002E0C002000BF03490968C8620149C8605D
:1032000000BF7047880E002010B50248FEF752FF3D
:1032100010BD0000880E002010B50C48FEF792FF8C
:10322000002204210A48FEF7D7FA002208210848A4
:10323000FEF7D2FA002210210548FEF7CDFA00224F
:1032400020210348FEF7C8FA10BD0000880E0020B8
:103250000014014000BF054A126802F04002002A33
:10326000F9D0C2B2014B1B1D1A60704700380140F3
:1032700000B585B00020019002900390049000BF3B
:1032800000BF0E48806940F040000C498861084644
:10329000806900F04000009000BF00BF00BF4FF405
:1032A000C040019000200290012003900320049070
:1032B00001A90348FEF7E8F805B000BD0010024080
:1032C0000018014010B500F013F8084908700846CE
:1032D0000078012802D100F07FF805E0034800786B
:1032E000022801D100F0EAF810BD00000B0C00200C
:1032F00010B54FF400511748FEF766FA28B14FF4A5
:1033000080411448FEF760FA10BB1420FFF7DCFE82
:103310004FF400510F48FEF757FA48B900BF4FF479
:1033200000510C48FEF750FA0028F8D0012010BDDB
:103330004FF480410748FEF747FA48B900BF4FF401
:1033400080410448FEF740FA0028F8D00220EEE75A
:103350000020ECE70018014000B585B000BF00BFB9
:103360001A48806940F01000184988610846806951
:1033700000F01000009000BF00BF00BFE0200190EF
:1033800001200290002003900220049001A910481F
:10339000FEF77AF801A90F48FEF776F800BF012280
:1033A00040210B48FEF718FA00BF00BF0122802120
:1033B0000748FEF711FA00BF00BF0122202105488F
:1033C000FEF70AFA00BF05B000BD00000010024081
:1033D00000100140000C01402DE9FF5F4FF08144D7
:1033E000DFF8BC90FFF710FF2E4A21462E480068F8
:1033F000FFF790FD82462B4890F90000FFF7EAFEA8
:103400004FF4FA60FFF7F6FE2849504600F0AEFC94
:10341000064600F057FC85B22846FFF755FEFFF739
:10342000FBFE2148046000F047F9214A4946214843
:103430000068FFF76FFD83461D4890F9000000F01B
:1034400021F94FF4FA6000F02DF91849584600F0C0
:103450008DFC064600F036FC85B22846FFF734FEA8
:1034600000F032F91348C0F80090006800F090FBBB
:1034700005460E460C48006800F08AFB07460C48DB
:10348000CDE9025690F900003A460B4600900548F7
:1034900090F900100848FCF7EFFEBDE8FF9F000020
:1034A000CDCC8C3F090C0020000C002000007A4499
:1034B000080C0020040C0020D04000082DE9FF5F1C
:1034C0000024A146FFF7A0FE2D4A21462D480068A2
:1034D000FFF720FD82462A4890F90000FFF77AFEA8
:1034E0004FF4FA60FFF786FE2749504600F03EFC95
:1034F000064600F0E7FB85B22846FFF7E5FDFFF73B
:103500008BFE2048046000F0D7F8204A4946204846
:103510000068FFF7FFFC83461C4890F9000000F0AC
:10352000B1F84FF4FA6000F0BDF81749584600F0C2
:103530001DFC064600F0C6FB85B22846FFF7C4FD19
:1035400000F0C2F81248C0F80090006800F020FBBC
:1035500005460E460B48006800F01AFB07460B486C
:10356000CDE9025690F900003A460B460090044817
:1035700090F9001007A0FCF77FFEBDE8FF9F000058
:10358000090C0020000C002000007A44080C0020E8
:10359000040C0020696E69743A20666F727761725C
:1035A00064203A20646972203D2025642C20706FCD
:1035B00073203D2025662C206C696674203A2064B7
:1035C0006972203D2025642C20706F73203D2025DA
:1035D000660D0A0000B585B00020019002900390AE
:1035E000049000BF2348806940F040002149886171
:1035F0000846806900F04000009000BF00BF00BF97
:103600000846C06940F00800C8610846C06900F07B
:103610000800009000BF00BF3C20019001200290F4
:10362000002003900220049001A91348FDF72CFF0D
:103630001248134908604720486000211048816003
:1036400040F2E731C160002101618161FEF7FEFCBB
:103650000B480068C06840F0010009490968C8606B
:10366000022211463220FEF71AF93220FEF707F93E
:1036700005B000BD0010024000180140000C0040E1
:10368000D00E002072B6002803DD0121044A11701B
:1036900004E0002802DAFF21014A117062B6704787
:1036A000300C002000BF03490968C8620149C860A6
:1036B00000BF7047D00E002010B50248FEF7FAFC9C
:1036C00010BD0000D00E002010B50C48FEF73AFDEA
:1036D000002204210A48FEF77FF80022082108484A
:1036E000FEF77AF8002210210548FEF775F800224F
:1036F00020210348FEF770F810BD0000D00E002016
:1037000000180140FEF780F84FF4E01000F086F852
:103710004FF4E13000F00CF94820FFF7CFFCFFF741
:103720001BFEFFF7A5FDFFF72BFCFFF753FFFFF78D
:10373000F9FCFFF7BBFC0020FFF796FC40F2E730F6
:10374000FFF7AEFCFFF7B8FF0120FFF79BFF4FF438
:10375000FA60FFF7A7FF4FF47A70FFF7B5FCFFF7A9
:10376000B3FF10A0FCF788FD4FF4FA60FFF7ACFC44
:10377000FFF7A2FF4FF0FF30FFF784FF4FF4FA602E
:10378000FFF790FF4FF47A70FFF79EFCFFF79CFF66
:1037900013A0FCF771FD04E0FFF794FD6420FFF730
:1037A00093FCF9E76C6966745F6469723D31E69772
:1037B000B6EFBC8CE8A782E5AF9FE5AE9EE99985A0
:1037C000E8BDACE59091E698AFE590A6E4BDBFE416
:1037D000BD8DE7BDAEE5A29EE58AA05C6E0000004F
:1037E0006C6966745F6469723D2D31E697B6EFBC13
:1037F0008CE8A782E5AF9FE5AE9EE99985E8BDAC70
:10380000E59091E698AFE590A6E4BDBFE4BD8DE7F5
:10381000BDAEE5878FE5B0915C6E000030B58FB02E
:1038200005460124282105A8FCF732FE142168462C
:10383000FCF72EFE01200590000406900020079062
:1038400002200C90C1030D910E9505A8FEF7B0F96A
:1038500004460CB100BFFEE70F200090022001904B
:10386000002002904FF48060039000200490022119
:103870006846FEF767F804460CB100BFFEE70FB0DC
:1038800030BD000010B572B625482649097810F8F9
:10389000210008B1012000E0002002460421224856
:1038A000FDF79AFF1E481F49097800EB8100407818
:1038B00008B1012000E00020024608211A48FDF767
:1038C0008BFF17481749097800EB8100807808B111
:1038D000012000E00020024610211348FDF77CFF84
:1038E0000F481049097800EB8100C07808B1012029
:1038F00000E00020024620210B48FDF76DFF09493A
:1039000009780A4A92F900201144081DC11700EBFA
:1039100091718910A0EB8101024A117062B610BD4D
:103920001A400008310C002000180140300C002023
:1039300010B504460748084908600846446000215D
:103940008160C160016181610C214161FEF779FEF6
:1039500010BD000000380140000D002010B5002906
:103960000AD00878002807D005487844FDF780F988
:10397000002801D0002010BD0248784410BD00008E
:10398000CA070000C207000021F00042A2F1605205
:10399000B2F5801F01F0004328BFD2F17F6C0BD934
:1039A0005FEA001C43EAC20242EB507018BF704746
:1039B00028BF20F001007047B2F5801FBCBF184639
:1039C00070474FEA410C1CF5001F02D2084600F078
:1039D00094BA70B500F052F800000089FFF7F6BF06
:1039E0004FF00040A0F580007047491058BFC1F16A
:1039F00040415B1058BFC3F140438B42EFF300805E
:103A00007047000051EA030C17D41CF5801F58BF03
:103A1000BCF5801F00F10680994218BF704708BFAF
:103A20009042704707D711F5801F58BF13F5801FCC
:103A300019D499427047894270471CF5801F08D5F8
:103A4000BCF5801FF7D58B4218BF704708BF824274
:103A500070474FF4001C1CEB410F38BF1CEB430FA9
:103A600001D28B42704770B500F008F892244900EB
:103A70004FF000514FF08053FFF7B7BF0EF1020E29
:103A80002EF0030E5EF8046B364205D4012A43EB98
:103A9000030515F5001F12D8012841EB010C1CF598
:103AA000001F0CD80ED14FEAD17C15F5001F0CEB8E
:103AB0004C0C0CF1020C08BF4CEBD37C04E04FF033
:103AC000080C01E04FEAD37C0CEB4C0526FA05F616
:103AD00006F00706B6F1040C06D20EEB860CBDE824
:103AE00070404CF0010C6047DFE80CF0090B02025B
:103AF0004FF000414FF00000A1F5002170BD1946C4
:103B00001046012851EB010418BFD4F5001484BFFE
:103B1000002001F0004170BD0808A0F500114FEA37
:103B20003101704753EA010C17D41CF5801F58BFB0
:103B3000BCF5801F00F106808B4218BF704708BF9C
:103B40008242704707D713F5801F58BF11F5801FB9
:103B500019D48B4270479B4270471CF5801F08D5D3
:103B6000BCF5801FF7D5994218BF704708BF904237
:103B700070474FF4001C1CEB430F38BF1CEB410F88
:103B800001D2994270470FB40CBC03BCFFF76BBF66
:103B900043004FEAD30C4FEA3C0C43401FBF4007A1
:103BA0000CF1605113F0FE4F70471CF0006F03D111
:103BB00000200CF0004170470CF0004343EA5070C5
:103BC00010B540EACC0000F052F900BF00000092AE
:103BD0004FEA0001FFF7A0BF4FF000414FF0000097
:103BE000A1F500217047000090EA010F48BF81F065
:103BF000004100F18E81421A3CBF801A89184FEAB9
:103C0000D0524FF07F4C1CEA410FA2EBD15318BFAA
:103C10009CEA026F00F03B804FF0004C4CEA002021
:103C20004CEA012121FA03FC10EB0C0C1ED202F12C
:103C3000FF325FEA1C2040EBC25038BF70471CF0D7
:103C40007F0F4FEA400C18BFBCF17F4F38BF704761
:103C5000C3F12003994008BF20F00100BCF17F4F61
:103C600038BF7047A0F1C04000F047B94FEA3C00B0
:103C7000000A40EBC25028BF1CF0FF0F4FEA400C77
:103C8000E6D018BFBCF17F4F38BF7047EAE79CEA27
:103C9000026F05D010EA5C0F08BF00F000407047CB
:103CA00010B500F0E4F800BF64FBBE3E401058BF02
:103CB000C0F14040491058BFC1F140418142EFF38B
:103CC00000807047C10DD1F19E0206DB4FEA002350
:103CD00043F0004323FA02F07047004207D54FEA51
:103CE0004001B1F1FE4F02D24FF00000704710B515
:103CF00000F0BDF849922480002070476FEA200050
:103D00007047000050EA010C00F113801CF5000F11
:103D100058BFBCF5000F01D48842704707D710F593
:103D2000000F58BF11F5000F15D488427047894223
:103D300070471CF5000F04D5BCF5000FF7D5814284
:103D400070474FF0807C1CEB400F38BF1CEB410FDD
:103D500001D28142704710B500F089F892244900E1
:103D60004FF000504FF08051FFF7A0BF4FF47F0C91
:103D70001CEAD0121EBF1CEAD11392EA0C0F93EA80
:103D80000C0F00F0478090EA010F48BF42F48072A8
:103D90004FF0004C4CEA00204CEA012102EB0302F8
:103DA000A0FB0113A2F50002002918BF43F0010394
:103DB0005B0028BF4FEA330342EB22425FEA132C39
:103DC0004CEBC2502EBFBCEB436FB2F57C0F70477B
:103DD0004FEA036CBCF1004F08BF20F00100B2F5C0
:103DE0007C0F38BF70470BD582F0FF0212F5803F81
:103DF000C8BF704700F1C040D8BF00F00040704716
:103E000000F5000C5FEA4C0C48BF7047B0F1C040B1
:103E100000F073B890EA010F0CEAD11348BF42F4E6
:103E20008072624538BF634504D280EA010000F029
:103E30000040704710B500F01AF800BF8900013E3D
:103E400000F007B800F009B85FEA410C5FEA1C6CAB
:103E500008D080EA010000F050B85FEA400C5FEA49
:103E60001C6CF6D14FF00040A0F5800070470EF1B9
:103E7000020E2EF0030E5EF8044B244204D44FEAE7
:103E80004102B2F17F4F11D84FEA4003B3F17F4FA7
:103E90000CD80ED14FEAD07CB2F17F4F0CEB4C0C1A
:103EA0000CF1020C08BF4CEBD17C04E04FF0080C85
:103EB00001E04FEAD17C0CEB4C0324FA03F404F04C
:103EC0000704B4F1040C06D20EEB840CBDE81040DC
:103ED0004CF0010C6047DFE80CF0070802024FF0DD
:103EE0000040A0F5800010BD0846420018BFD2F186
:103EF000807288BF00F0004010BDFF2141EAD05021
:103F0000C005704790EA010F48BF81F000413FF5BE
:103F100072AE421A04D882F00042A0EB02001144B3
:103F20004FEAD0524FF07F4C1CEA410FA2EBD15325
:103F300018BF9CEA026F4AD04FF0004C4CEA0020B8
:103F40004CEA012121FA03FCB0EB0C0C0FD412F067
:103F5000FE0F36D05FEA4C001DD5001240EBC25078
:103F600038BF70471CF03F0F18BF70470BE0A2F13D
:103F700001025FEA1C2040EBC25038BF70471CF0C2
:103F80007F0F18BF7047C3F12003994014BF401E34
:103F900020F00100704780084FEA122308BF7047E5
:103FA000B0FA80FCA2EB0C02CCF1280C60FA0CF009
:103FB00093EA122F04BF00EBC25070474FEAC37060
:103FC0007047130A5FEADC1008BF7047F6E79CEA07
:103FD000026F04D010EA5C0F08BF0020704710B5D4
:103FE000FFF745FF40DFF63E81F000407047FCF7E9
:103FF000ACBB000000000000000001020304060743
:104000000809000000000102030401000100000192
:104010000100000100010100000101000100000198
:10402000010000010001010000010400000800007F
:10403000000000000002000100001000024000002B
:10404000000000A00000000005400000000000C8C3
:10405000000000000C4000000000409C0000000038
:10406000194000000020BCBE0000000034400000E9
:10407000BFC91B8E00000004B5400000504BCFD0DC
:104080006607E2CF010000006C4100003E8251AAA9
:10409000DFEEA73401000000D9420000DCB5A0E249
:1040A0003A301F97FFFFFFFFB4450000FD25A0C871
:1040B000E9A3C14FFFFFFFFFFF3F000000000080AA
:1040C00000000000FF3F0000000000800000000032
:1040D0006465746563743A20666F727761726420F8
:1040E0003A20646972203D2025642C20706F732073
:1040F0003D2025662C206C696674203A2064697224
:10410000203D2025642C20706F73203D2025660DF6
:104110000A0000005041000800000020340C00009C
:104120006C010008E8430008340C0020440900003A
:10413000D00100081C00000043000000F8FFFFFF52
:104140000C0000000E0000000F0000002E00000018
:1041500040120003050911FF118905C300E000F0BA
:1041600000F8000100083A4428FF11AA4400015059
:104170000B830138448292927401831120087C449D
:10418000FF017D7D7D04410540047D01FF6E9201AC
:1041900002613F033B01017E81419149F20101012E
:1041A0001BC230083F3F0303F3131101100601F156
:1041B000116181402005816111F1473341410720A0
:1041C0000401C12120A321C114311931370407365C
:1041D000D33303033F3F426006E0E000007FA812B4
:1041E0007FBF40040618060A1008000040407F40C8
:1041F00040A410041F204001A3201F143300600EB0
:104200006004300C03460534C21004070706017031
:104210000904040484444444840780050484C404D9
:104220001501120A71112140073D0707C9200F002F
:1042300000101814121100000F1010100F0F131F90
:104240001015600D081012120D00001800000D125C
:104250000A51295130015E01528001013B4514048D
:104260007F030CA915DE1C05385454582503080A91
:104270002004047800003C40407C2000092CFFAA68
:10428000AAAA280800FF68100626494949321010DA
:1042900005020408100F0D6F00049D01040D9D0020
:1042A00004156343F80801240500F81860E82404A5
:1042B000806018235720202923E01021A310E01448
:1042C00049B4313908043C886818630D15FF037D33
:1042D000EA039DFF0371144DFF031D06043D2E04E8
:1042E0000942E91C0640202020C04A04110721EAA7
:1042F0003E40520452600E8118712951070D4769E2
:10430000031C060C0A0A090C0004156B2D0004207E
:1043100004080F081510050809090E071D180430B8
:10432000050909090F0A512951070DFF00040D2243
:1043300000040D13D70422C001013EDA0D31F2064C
:10434000200AC0F8FCFEFF3F1F0F07010808360FC8
:104350001F3FFFFEFCF849200B80E0F0F8FCFC7EDC
:104360003E3F1F010C081D3F3E7EFCFCF8F00C0791
:104370001006073F7FFFFF26350011400C0536FF72
:10438000FF7F3FBF06121F4B22FF4B3D2706214FE9
:1043900011100F207F0FB808340403030300110825
:1043A0000D3D0409114B1547410121500E4101F209
:1043B00006021CC001095A3516FE51031BFF0701F6
:1043C000220F230E55FCF00300071B1F3F7F7F7F4A
:1043D000F80112FC220004B53F0F00010F1424F471
:0843E0007F093DA307810100E4
:0400000508000131BD
:00000001FF
